{
  "contractName": "Identity",
  "abi": [
    {
      "constant": true,
      "inputs": [],
      "name": "userCount",
      "outputs": [
        {
          "name": "",
          "type": "uint256"
        }
      ],
      "payable": false,
      "stateMutability": "view",
      "type": "function"
    },
    {
      "constant": true,
      "inputs": [
        {
          "name": "",
          "type": "uint256"
        }
      ],
      "name": "users",
      "outputs": [
        {
          "name": "account",
          "type": "string"
        },
        {
          "name": "username",
          "type": "string"
        },
        {
          "name": "completed",
          "type": "bool"
        }
      ],
      "payable": false,
      "stateMutability": "view",
      "type": "function"
    },
    {
      "inputs": [],
      "payable": false,
      "stateMutability": "nonpayable",
      "type": "constructor"
    },
    {
      "anonymous": false,
      "inputs": [
        {
          "indexed": false,
          "name": "account",
          "type": "string"
        },
        {
          "indexed": false,
          "name": "username",
          "type": "string"
        },
        {
          "indexed": false,
          "name": "completed",
          "type": "bool"
        }
      ],
      "name": "UserCreated",
      "type": "event"
    },
    {
      "constant": false,
      "inputs": [
        {
          "name": "_account",
          "type": "string"
        },
        {
          "name": "_username",
          "type": "string"
        }
      ],
      "name": "createUser",
      "outputs": [],
      "payable": false,
      "stateMutability": "nonpayable",
      "type": "function"
    }
  ],
  "bytecode": "0x60806040526000805534801561001457600080fd5b506107d5806100246000396000f3fe608060405234801561001057600080fd5b50600436106100415760003560e01c806307973ccf14610046578063365b98b21461006057806387b162b514610166575b600080fd5b61004e610295565b60408051918252519081900360200190f35b61007d6004803603602081101561007657600080fd5b503561029b565b60405180806020018060200184151515158152602001838103835286818151815260200191508051906020019080838360005b838110156100c85781810151838201526020016100b0565b50505050905090810190601f1680156100f55780820380516001836020036101000a031916815260200191505b50838103825285518152855160209182019187019080838360005b83811015610128578181015183820152602001610110565b50505050905090810190601f1680156101555780820380516001836020036101000a031916815260200191505b509550505050505060405180910390f35b6102936004803603604081101561017c57600080fd5b81019060208101813564010000000081111561019757600080fd5b8201836020820111156101a957600080fd5b803590602001918460018302840111640100000000831117156101cb57600080fd5b91908080601f016020809104026020016040519081016040528093929190818152602001838380828437600092019190915250929594936020810193503591505064010000000081111561021e57600080fd5b82018360208201111561023057600080fd5b8035906020019184600183028401116401000000008311171561025257600080fd5b91908080601f0160208091040260200160405190810160405280939291908181526020018383808284376000920191909152509295506103de945050505050565b005b60005481565b60016020818152600092835260409283902080548451600294821615610100026000190190911693909304601f810183900483028401830190945283835292839183018282801561032d5780601f106103025761010080835404028352916020019161032d565b820191906000526020600020905b81548152906001019060200180831161031057829003601f168201915b505050505090806001018054600181600116156101000203166002900480601f0160208091040260200160405190810160405280929190818152602001828054600181600116156101000203166002900480156103cb5780601f106103a0576101008083540402835291602001916103cb565b820191906000526020600020905b8154815290600101906020018083116103ae57829003601f168201915b5050506002909301549192505060ff1683565b600080805b60005481101561050157846040516020018082805190602001908083835b602083106104205780518252601f199092019160209182019101610401565b6001836020036101000a038019825116818451168082178552505050505050905001915050604051602081830303815290604052805190602001206001600083815260200190815260200160002060000160405160200180828054600181600116156101000203166002900480156104cf5780601f106104ad5761010080835404028352918201916104cf565b820191906000526020600020905b8154815290600101906020018083116104bb575b50509150506040516020818303038152906040528051906020012014156104f95760019150600092505b6001016103e3565b50600181151514156105845760408051606081018252858152602080820186905260008284018190528581526001825292909220815180519293919261054a928492019061070e565b506020828101518051610563926001850192019061070e565b50604091909101516002909101805460ff19169115159190911790556105ff565b60008054600190810180835560408051606081018252888152602080820189905281830186905292855292825290922081518051929391926105c9928492019061070e565b5060208281015180516105e2926001850192019061070e565b50604091909101516002909101805460ff19169115159190911790555b604080516000918101829052606080825286519082015285517f39d2d2b31533c7b026420c0d8f86c34804a52516d4a0134e2efb8472b2ec962c928792879281906020808301916080840191880190808383895b8381101561066b578181015183820152602001610653565b50505050905090810190601f1680156106985780820380516001836020036101000a031916815260200191505b50838103825285518152855160209182019187019080838360005b838110156106cb5781810151838201526020016106b3565b50505050905090810190601f1680156106f85780820380516001836020036101000a031916815260200191505b509550505050505060405180910390a150505050565b828054600181600116156101000203166002900490600052602060002090601f016020900481019282601f1061074f57805160ff191683800117855561077c565b8280016001018555821561077c579182015b8281111561077c578251825591602001919060010190610761565b5061078892915061078c565b5090565b6107a691905b808211156107885760008155600101610792565b9056fea165627a7a72305820b73d3eae16740c2dbdb57182f34a8092a91d6b46a5175fd012829c52eb5090b80029",
  "source": "pragma solidity ^0.5.0;\n\ncontract Identity {\n  uint public userCount = 0;\n\n  struct User {\n    string account;\n    string username;\n    bool completed;\n  }\n\n  mapping(uint => User) public users;\n\n  event UserCreated(\n    string account,\n    string username,\n    bool completed\n  );\n\n  constructor() public {\n  }\n\n  function createUser(string memory _account, string memory _username) public {\n\n    uint id = 0;\n    bool exists = false; \n\n    for (uint i=0; i<userCount; i++) {\n      // if user already exists overwrite username\n       if(keccak256(abi.encodePacked(users[i].account)) == keccak256(abi.encodePacked(_account))) {\n          // users[i] = User(_account, _username, false);\n          exists = true;\n          id = 0;\n        } \n    }\n\n    if(exists == true) {\n      users[id] = User(_account, _username, false);\n    } else {\n      userCount ++;\n      users[userCount] = User(_account, _username, false);\n    }\n    \n    emit UserCreated(_account, _username, false);\n   \n  }\n// keccak256(abi.encodePacked(users[i].account)) == keccak256(abi.encodePacked(_account))\n}\n",
  "sourcePath": "/Users/jasonsmellz/Documents/eth-todo/eth-todo-list/contracts/Identity.sol",
  "compiler": {
    "name": "solc",
    "version": "0.5.8+commit.23d335f2.Emscripten.clang"
  },
  "schemaVersion": "3.0.11",
  "updatedAt": "2019-09-25T23:20:45.945Z",
  "devdoc": {
    "methods": {}
  },
  "userdoc": {
    "methods": {}
  }
}